{
  "contractName": "Shop",
  "abi": [
    {
      "inputs": [],
      "stateMutability": "nonpayable",
      "type": "constructor"
    },
    {
      "inputs": [],
      "name": "reset",
      "outputs": [],
      "stateMutability": "payable",
      "type": "function"
    },
    {
      "inputs": [
        {
          "internalType": "uint256",
          "name": "item",
          "type": "uint256"
        },
        {
          "internalType": "uint256",
          "name": "quantity",
          "type": "uint256"
        }
      ],
      "name": "buy",
      "outputs": [],
      "stateMutability": "payable",
      "type": "function"
    },
    {
      "inputs": [
        {
          "internalType": "uint256",
          "name": "item",
          "type": "uint256"
        },
        {
          "internalType": "uint256",
          "name": "quantity",
          "type": "uint256"
        }
      ],
      "name": "refund",
      "outputs": [],
      "stateMutability": "payable",
      "type": "function"
    },
    {
      "inputs": [],
      "name": "isChallSolved",
      "outputs": [
        {
          "internalType": "bool",
          "name": "solved",
          "type": "bool"
        }
      ],
      "stateMutability": "view",
      "type": "function"
    }
  ],
  "bytecode": "0x60806040526040518060800160405280674563918244f4000068ffffffffffffffffff1681526020016798a7d9b8314c000068ffffffffffffffffff16815260200168013f306a2409fc000068ffffffffffffffffff16815260200168487a9a30453944000068ffffffffffffffffff16815250600090600461008392919061013c565b506040518060800160405280600060ff168152602001600060ff168152602001600060ff168152602001600060ff1681525060049060046100c5929190610189565b503480156100d257600080fd5b506100e16100e660201b60201c565b6101f3565b600060046000600481106100f657fe5b01819055506000600460016004811061010b57fe5b01819055506000600460026004811061012057fe5b01819055506000600460036004811061013557fe5b0181905550565b8260048101928215610178579160200282015b82811115610177578251829068ffffffffffffffffff1690559160200191906001019061014f565b5b50905061018591906101ce565b5090565b82600481019282156101bd579160200282015b828111156101bc578251829060ff1690559160200191906001019061019c565b5b5090506101ca91906101ce565b5090565b6101f091905b808211156101ec5760008160009055506001016101d4565b5090565b90565b6105f1806102026000396000f3fe60806040526004361061003f5760003560e01c80635af36e3e14610044578063d6febde81461007c578063d826f88f146100b4578063ed7e286b146100be575b600080fd5b61007a6004803603604081101561005a57600080fd5b8101908080359060200190929190803590602001909291905050506100ed565b005b6100b26004803603604081101561009257600080fd5b810190808035906020019092919080359060200190929190505050610375565b005b6100bc610518565b005b3480156100ca57600080fd5b506100d361056e565b604051808215151515815260200191505060405180910390f35b816000111580156100ff575060038211155b610171576040517f08c379a00000000000000000000000000000000000000000000000000000000081526004018080602001828103825260148152602001807f4974656d20646f6573206e6f742065786973742100000000000000000000000081525060200191505060405180910390fd5b8060001080156101825750600a8111155b6101d7576040517f08c379a00000000000000000000000000000000000000000000000000000000081526004018080602001828103825260238152602001806105996023913960400191505060405180910390fd5b6000600483600481106101e657fe5b01541161025b576040517f08c379a000000000000000000000000000000000000000000000000000000000815260040180806020018281038252601a8152602001807f596f7520646f206e6f7420686176652074686174206974656d2100000000000081525060200191505060405180910390fd5b806004836004811061026957fe5b015410156102df576040517f08c379a00000000000000000000000000000000000000000000000000000000081526004018080602001828103825260208152602001807f5175616e746974792069732067726561746572207468616e20616d6f756e742181525060200191505060405180910390fd5b3373ffffffffffffffffffffffffffffffffffffffff16816000846004811061030457fe5b01540260405180600001905060006040518083038185875af1925050503d806000811461034d576040519150601f19603f3d011682016040523d82523d6000602084013e610352565b606091505b505050806004836004811061036357fe5b01600082825403925050819055505050565b81600011158015610387575060038211155b6103f9576040517f08c379a00000000000000000000000000000000000000000000000000000000081526004018080602001828103825260148152602001807f4974656d20646f6573206e6f742065786973742100000000000000000000000081525060200191505060405180910390fd5b80600010801561040a5750600a8111155b61047c576040517f08c379a00000000000000000000000000000000000000000000000000000000081526004018080602001828103825260208152602001807f43616e6e6f7420627579206d6f7265207468616e203130206174206f6e63652181525060200191505060405180910390fd5b806000836004811061048a57fe5b0154023414610501576040517f08c379a000000000000000000000000000000000000000000000000000000000815260040180806020018281038252600e8152602001807f5061796d656e74206572726f722100000000000000000000000000000000000081525060200191505060405180910390fd5b806004836004811061050f57fe5b01819055505050565b6000600460006004811061052857fe5b01819055506000600460016004811061053d57fe5b01819055506000600460026004811061055257fe5b01819055506000600460036004811061056757fe5b0181905550565b600080600460036004811061057f57fe5b015411156105905760019050610595565b600090505b9056fe43616e6e6f7420726566756e64206d6f7265207468616e203130206174206f6e636521a26469706673582212208728455c30dda2eb5eaa698ef4d06fc062048b59dc6d56ce59513fe229dfa24064736f6c63430006000033",
  "source": "pragma solidity ^0.6.0;\r\ncontract Shop {\r\n    uint[4] cost = [5 ether,11 ether,23 ether,1337 ether];\r\n   uint[4] bought = [0,0,0,0];\r\n    function reset() public payable {\r\n        bought[0] = 0;\r\n        bought[1] = 0;\r\n        bought[2] = 0;\r\n        bought[3] = 0;\r\n    }\r\n    constructor() public {\r\n        reset();\r\n    }\r\n\r\n    function buy(uint item, uint quantity) public payable {\r\n        require(0 <= item && item<= 3, \"Item does not exist!\");\r\n        require(0 < quantity && quantity <= 10, \"Cannot buy more than 10 at once!\");\r\n        require(msg.value == (cost[item] * quantity), \"Payment error!\");\r\n        bought[item] = quantity;\r\n    }\r\n\r\n    function refund(uint item, uint quantity) public payable {\r\n        require(0 <= item && item <= 3, \"Item does not exist!\");\r\n        require(0 < quantity && quantity <= 10, \"Cannot refund more than 10 at once!\");\r\n        require(bought[item] > 0, \"You do not have that item!\");\r\n        require(bought[item] >= quantity, \"Quantity is greater than amount!\");\r\n        msg.sender.call.value((cost[item] * quantity))(\"\");\r\n        bought[item] -= quantity;\r\n    }\r\n\r\n    function isChallSolved() public view returns (bool solved) {\r\n        if (bought[3] > 0) {\r\n            return true;\r\n        }\r\n        else {\r\n            return false;\r\n        }\r\n    }\r\n\r\n}",
  "sourcePath": "/home/noobmaster/n00bzUnit3d/n00bzCTF2024/challenges/Blockchain/Shop/solve/contracts/Shop.sol",
  "compiler": {
    "name": "solc",
    "version": "0.6.0+commit.26b70077.Emscripten.clang"
  },
  "schemaVersion": "3.4.16",
  "updatedAt": "2024-08-02T14:46:02.916Z",
  "devdoc": {
    "methods": {}
  },
  "userdoc": {
    "methods": {}
  }
}